{
	"data": {
		"bytecode": {
			"linkReferences": {},
			"object": "608060405234801561001057600080fd5b506105ce806100206000396000f3fe60806040526004361061002d5760003560e01c8063520091d914610065578063ec9da493146100905761002e565b5b7fadd515978d4381ed85fd4df6f7bdb7d56ddef10f23a0e23ac232cfe67bd322bd60405161005b90610301565b60405180910390a1005b34801561007157600080fd5b5061007a6100c0565b60405161008791906102df565b60405180910390f35b6100aa60048036038101906100a591906101b8565b6100e0565b6040516100b79190610321565b60405180910390f35b606060405180606001604052806022815260200161057760229139905090565b60007f59e04c3f0d44b7caf6e8ef854b61d9a51cf1960d7a88ff6356cc5e946b4b5832333486604051610115939291906102a1565b60405180910390a160018361012a91906103ae565b90509392505050565b600061014661014184610361565b61033c565b90508281526020810184848401111561016257610161610516565b5b61016d848285610440565b509392505050565b600082601f83011261018a57610189610511565b5b813561019a848260208601610133565b91505092915050565b6000813590506101b28161055f565b92915050565b6000806000606084860312156101d1576101d0610520565b5b600084013567ffffffffffffffff8111156101ef576101ee61051b565b5b6101fb86828701610175565b935050602061020c868287016101a3565b925050604061021d868287016101a3565b9150509250925092565b61023081610404565b82525050565b600061024182610392565b61024b818561039d565b935061025b81856020860161044f565b61026481610525565b840191505092915050565b600061027c60168361039d565b915061028782610536565b602082019050919050565b61029b81610436565b82525050565b60006060820190506102b66000830186610227565b6102c36020830185610292565b81810360408301526102d58184610236565b9050949350505050565b600060208201905081810360008301526102f98184610236565b905092915050565b6000602082019050818103600083015261031a8161026f565b9050919050565b60006020820190506103366000830184610292565b92915050565b6000610346610357565b90506103528282610482565b919050565b6000604051905090565b600067ffffffffffffffff82111561037c5761037b6104e2565b5b61038582610525565b9050602081019050919050565b600081519050919050565b600082825260208201905092915050565b60006103b982610436565b91506103c483610436565b9250827fffffffffffffffffffffffffffffffffffffffffffffffffffffffffffffffff038211156103f9576103f86104b3565b5b828201905092915050565b600061040f82610416565b9050919050565b600073ffffffffffffffffffffffffffffffffffffffff82169050919050565b6000819050919050565b82818337600083830152505050565b60005b8381101561046d578082015181840152602081019050610452565b8381111561047c576000848401525b50505050565b61048b82610525565b810181811067ffffffffffffffff821117156104aa576104a96104e2565b5b80604052505050565b7f4e487b7100000000000000000000000000000000000000000000000000000000600052601160045260246000fd5b7f4e487b7100000000000000000000000000000000000000000000000000000000600052604160045260246000fd5b600080fd5b600080fd5b600080fd5b600080fd5b6000601f19601f8301169050919050565b7f66616c6c6261636b207761732074726967676572656400000000000000000000600082015250565b61056881610436565b811461057357600080fd5b5056fe4f6c75776166656d6920616e642041646577616c6520616e64204f67756e646f6a75a2646970667358221220481a9182ac508e5840e62347ca93fe06b120ffc82bc1e897d5bd33cc09d77e0764736f6c63430008070033",
			"opcodes": "PUSH1 0x80 PUSH1 0x40 MSTORE CALLVALUE DUP1 ISZERO PUSH2 0x10 JUMPI PUSH1 0x0 DUP1 REVERT JUMPDEST POP PUSH2 0x5CE DUP1 PUSH2 0x20 PUSH1 0x0 CODECOPY PUSH1 0x0 RETURN INVALID PUSH1 0x80 PUSH1 0x40 MSTORE PUSH1 0x4 CALLDATASIZE LT PUSH2 0x2D JUMPI PUSH1 0x0 CALLDATALOAD PUSH1 0xE0 SHR DUP1 PUSH4 0x520091D9 EQ PUSH2 0x65 JUMPI DUP1 PUSH4 0xEC9DA493 EQ PUSH2 0x90 JUMPI PUSH2 0x2E JUMP JUMPDEST JUMPDEST PUSH32 0xADD515978D4381ED85FD4DF6F7BDB7D56DDEF10F23A0E23AC232CFE67BD322BD PUSH1 0x40 MLOAD PUSH2 0x5B SWAP1 PUSH2 0x301 JUMP JUMPDEST PUSH1 0x40 MLOAD DUP1 SWAP2 SUB SWAP1 LOG1 STOP JUMPDEST CALLVALUE DUP1 ISZERO PUSH2 0x71 JUMPI PUSH1 0x0 DUP1 REVERT JUMPDEST POP PUSH2 0x7A PUSH2 0xC0 JUMP JUMPDEST PUSH1 0x40 MLOAD PUSH2 0x87 SWAP2 SWAP1 PUSH2 0x2DF JUMP JUMPDEST PUSH1 0x40 MLOAD DUP1 SWAP2 SUB SWAP1 RETURN JUMPDEST PUSH2 0xAA PUSH1 0x4 DUP1 CALLDATASIZE SUB DUP2 ADD SWAP1 PUSH2 0xA5 SWAP2 SWAP1 PUSH2 0x1B8 JUMP JUMPDEST PUSH2 0xE0 JUMP JUMPDEST PUSH1 0x40 MLOAD PUSH2 0xB7 SWAP2 SWAP1 PUSH2 0x321 JUMP JUMPDEST PUSH1 0x40 MLOAD DUP1 SWAP2 SUB SWAP1 RETURN JUMPDEST PUSH1 0x60 PUSH1 0x40 MLOAD DUP1 PUSH1 0x60 ADD PUSH1 0x40 MSTORE DUP1 PUSH1 0x22 DUP2 MSTORE PUSH1 0x20 ADD PUSH2 0x577 PUSH1 0x22 SWAP2 CODECOPY SWAP1 POP SWAP1 JUMP JUMPDEST PUSH1 0x0 PUSH32 0x59E04C3F0D44B7CAF6E8EF854B61D9A51CF1960D7A88FF6356CC5E946B4B5832 CALLER CALLVALUE DUP7 PUSH1 0x40 MLOAD PUSH2 0x115 SWAP4 SWAP3 SWAP2 SWAP1 PUSH2 0x2A1 JUMP JUMPDEST PUSH1 0x40 MLOAD DUP1 SWAP2 SUB SWAP1 LOG1 PUSH1 0x1 DUP4 PUSH2 0x12A SWAP2 SWAP1 PUSH2 0x3AE JUMP JUMPDEST SWAP1 POP SWAP4 SWAP3 POP POP POP JUMP JUMPDEST PUSH1 0x0 PUSH2 0x146 PUSH2 0x141 DUP5 PUSH2 0x361 JUMP JUMPDEST PUSH2 0x33C JUMP JUMPDEST SWAP1 POP DUP3 DUP2 MSTORE PUSH1 0x20 DUP2 ADD DUP5 DUP5 DUP5 ADD GT ISZERO PUSH2 0x162 JUMPI PUSH2 0x161 PUSH2 0x516 JUMP JUMPDEST JUMPDEST PUSH2 0x16D DUP5 DUP3 DUP6 PUSH2 0x440 JUMP JUMPDEST POP SWAP4 SWAP3 POP POP POP JUMP JUMPDEST PUSH1 0x0 DUP3 PUSH1 0x1F DUP4 ADD SLT PUSH2 0x18A JUMPI PUSH2 0x189 PUSH2 0x511 JUMP JUMPDEST JUMPDEST DUP2 CALLDATALOAD PUSH2 0x19A DUP5 DUP3 PUSH1 0x20 DUP7 ADD PUSH2 0x133 JUMP JUMPDEST SWAP2 POP POP SWAP3 SWAP2 POP POP JUMP JUMPDEST PUSH1 0x0 DUP2 CALLDATALOAD SWAP1 POP PUSH2 0x1B2 DUP2 PUSH2 0x55F JUMP JUMPDEST SWAP3 SWAP2 POP POP JUMP JUMPDEST PUSH1 0x0 DUP1 PUSH1 0x0 PUSH1 0x60 DUP5 DUP7 SUB SLT ISZERO PUSH2 0x1D1 JUMPI PUSH2 0x1D0 PUSH2 0x520 JUMP JUMPDEST JUMPDEST PUSH1 0x0 DUP5 ADD CALLDATALOAD PUSH8 0xFFFFFFFFFFFFFFFF DUP2 GT ISZERO PUSH2 0x1EF JUMPI PUSH2 0x1EE PUSH2 0x51B JUMP JUMPDEST JUMPDEST PUSH2 0x1FB DUP7 DUP3 DUP8 ADD PUSH2 0x175 JUMP JUMPDEST SWAP4 POP POP PUSH1 0x20 PUSH2 0x20C DUP7 DUP3 DUP8 ADD PUSH2 0x1A3 JUMP JUMPDEST SWAP3 POP POP PUSH1 0x40 PUSH2 0x21D DUP7 DUP3 DUP8 ADD PUSH2 0x1A3 JUMP JUMPDEST SWAP2 POP POP SWAP3 POP SWAP3 POP SWAP3 JUMP JUMPDEST PUSH2 0x230 DUP2 PUSH2 0x404 JUMP JUMPDEST DUP3 MSTORE POP POP JUMP JUMPDEST PUSH1 0x0 PUSH2 0x241 DUP3 PUSH2 0x392 JUMP JUMPDEST PUSH2 0x24B DUP2 DUP6 PUSH2 0x39D JUMP JUMPDEST SWAP4 POP PUSH2 0x25B DUP2 DUP6 PUSH1 0x20 DUP7 ADD PUSH2 0x44F JUMP JUMPDEST PUSH2 0x264 DUP2 PUSH2 0x525 JUMP JUMPDEST DUP5 ADD SWAP2 POP POP SWAP3 SWAP2 POP POP JUMP JUMPDEST PUSH1 0x0 PUSH2 0x27C PUSH1 0x16 DUP4 PUSH2 0x39D JUMP JUMPDEST SWAP2 POP PUSH2 0x287 DUP3 PUSH2 0x536 JUMP JUMPDEST PUSH1 0x20 DUP3 ADD SWAP1 POP SWAP2 SWAP1 POP JUMP JUMPDEST PUSH2 0x29B DUP2 PUSH2 0x436 JUMP JUMPDEST DUP3 MSTORE POP POP JUMP JUMPDEST PUSH1 0x0 PUSH1 0x60 DUP3 ADD SWAP1 POP PUSH2 0x2B6 PUSH1 0x0 DUP4 ADD DUP7 PUSH2 0x227 JUMP JUMPDEST PUSH2 0x2C3 PUSH1 0x20 DUP4 ADD DUP6 PUSH2 0x292 JUMP JUMPDEST DUP2 DUP2 SUB PUSH1 0x40 DUP4 ADD MSTORE PUSH2 0x2D5 DUP2 DUP5 PUSH2 0x236 JUMP JUMPDEST SWAP1 POP SWAP5 SWAP4 POP POP POP POP JUMP JUMPDEST PUSH1 0x0 PUSH1 0x20 DUP3 ADD SWAP1 POP DUP2 DUP2 SUB PUSH1 0x0 DUP4 ADD MSTORE PUSH2 0x2F9 DUP2 DUP5 PUSH2 0x236 JUMP JUMPDEST SWAP1 POP SWAP3 SWAP2 POP POP JUMP JUMPDEST PUSH1 0x0 PUSH1 0x20 DUP3 ADD SWAP1 POP DUP2 DUP2 SUB PUSH1 0x0 DUP4 ADD MSTORE PUSH2 0x31A DUP2 PUSH2 0x26F JUMP JUMPDEST SWAP1 POP SWAP2 SWAP1 POP JUMP JUMPDEST PUSH1 0x0 PUSH1 0x20 DUP3 ADD SWAP1 POP PUSH2 0x336 PUSH1 0x0 DUP4 ADD DUP5 PUSH2 0x292 JUMP JUMPDEST SWAP3 SWAP2 POP POP JUMP JUMPDEST PUSH1 0x0 PUSH2 0x346 PUSH2 0x357 JUMP JUMPDEST SWAP1 POP PUSH2 0x352 DUP3 DUP3 PUSH2 0x482 JUMP JUMPDEST SWAP2 SWAP1 POP JUMP JUMPDEST PUSH1 0x0 PUSH1 0x40 MLOAD SWAP1 POP SWAP1 JUMP JUMPDEST PUSH1 0x0 PUSH8 0xFFFFFFFFFFFFFFFF DUP3 GT ISZERO PUSH2 0x37C JUMPI PUSH2 0x37B PUSH2 0x4E2 JUMP JUMPDEST JUMPDEST PUSH2 0x385 DUP3 PUSH2 0x525 JUMP JUMPDEST SWAP1 POP PUSH1 0x20 DUP2 ADD SWAP1 POP SWAP2 SWAP1 POP JUMP JUMPDEST PUSH1 0x0 DUP2 MLOAD SWAP1 POP SWAP2 SWAP1 POP JUMP JUMPDEST PUSH1 0x0 DUP3 DUP3 MSTORE PUSH1 0x20 DUP3 ADD SWAP1 POP SWAP3 SWAP2 POP POP JUMP JUMPDEST PUSH1 0x0 PUSH2 0x3B9 DUP3 PUSH2 0x436 JUMP JUMPDEST SWAP2 POP PUSH2 0x3C4 DUP4 PUSH2 0x436 JUMP JUMPDEST SWAP3 POP DUP3 PUSH32 0xFFFFFFFFFFFFFFFFFFFFFFFFFFFFFFFFFFFFFFFFFFFFFFFFFFFFFFFFFFFFFFFF SUB DUP3 GT ISZERO PUSH2 0x3F9 JUMPI PUSH2 0x3F8 PUSH2 0x4B3 JUMP JUMPDEST JUMPDEST DUP3 DUP3 ADD SWAP1 POP SWAP3 SWAP2 POP POP JUMP JUMPDEST PUSH1 0x0 PUSH2 0x40F DUP3 PUSH2 0x416 JUMP JUMPDEST SWAP1 POP SWAP2 SWAP1 POP JUMP JUMPDEST PUSH1 0x0 PUSH20 0xFFFFFFFFFFFFFFFFFFFFFFFFFFFFFFFFFFFFFFFF DUP3 AND SWAP1 POP SWAP2 SWAP1 POP JUMP JUMPDEST PUSH1 0x0 DUP2 SWAP1 POP SWAP2 SWAP1 POP JUMP JUMPDEST DUP3 DUP2 DUP4 CALLDATACOPY PUSH1 0x0 DUP4 DUP4 ADD MSTORE POP POP POP JUMP JUMPDEST PUSH1 0x0 JUMPDEST DUP4 DUP2 LT ISZERO PUSH2 0x46D JUMPI DUP1 DUP3 ADD MLOAD DUP2 DUP5 ADD MSTORE PUSH1 0x20 DUP2 ADD SWAP1 POP PUSH2 0x452 JUMP JUMPDEST DUP4 DUP2 GT ISZERO PUSH2 0x47C JUMPI PUSH1 0x0 DUP5 DUP5 ADD MSTORE JUMPDEST POP POP POP POP JUMP JUMPDEST PUSH2 0x48B DUP3 PUSH2 0x525 JUMP JUMPDEST DUP2 ADD DUP2 DUP2 LT PUSH8 0xFFFFFFFFFFFFFFFF DUP3 GT OR ISZERO PUSH2 0x4AA JUMPI PUSH2 0x4A9 PUSH2 0x4E2 JUMP JUMPDEST JUMPDEST DUP1 PUSH1 0x40 MSTORE POP POP POP JUMP JUMPDEST PUSH32 0x4E487B7100000000000000000000000000000000000000000000000000000000 PUSH1 0x0 MSTORE PUSH1 0x11 PUSH1 0x4 MSTORE PUSH1 0x24 PUSH1 0x0 REVERT JUMPDEST PUSH32 0x4E487B7100000000000000000000000000000000000000000000000000000000 PUSH1 0x0 MSTORE PUSH1 0x41 PUSH1 0x4 MSTORE PUSH1 0x24 PUSH1 0x0 REVERT JUMPDEST PUSH1 0x0 DUP1 REVERT JUMPDEST PUSH1 0x0 DUP1 REVERT JUMPDEST PUSH1 0x0 DUP1 REVERT JUMPDEST PUSH1 0x0 DUP1 REVERT JUMPDEST PUSH1 0x0 PUSH1 0x1F NOT PUSH1 0x1F DUP4 ADD AND SWAP1 POP SWAP2 SWAP1 POP JUMP JUMPDEST PUSH32 0x66616C6C6261636B207761732074726967676572656400000000000000000000 PUSH1 0x0 DUP3 ADD MSTORE POP JUMP JUMPDEST PUSH2 0x568 DUP2 PUSH2 0x436 JUMP JUMPDEST DUP2 EQ PUSH2 0x573 JUMPI PUSH1 0x0 DUP1 REVERT JUMPDEST POP JUMP INVALID 0x4F PUSH13 0x75776166656D6920616E642041 PUSH5 0x6577616C65 KECCAK256 PUSH2 0x6E64 KECCAK256 0x4F PUSH8 0x756E646F6A75A264 PUSH10 0x70667358221220481A91 DUP3 0xAC POP DUP15 PC BLOCKHASH 0xE6 0x23 SELFBALANCE 0xCA SWAP4 INVALID MOD 0xB1 KECCAK256 SELFDESTRUCT 0xC8 0x2B 0xC1 0xE8 SWAP8 0xD5 0xBD CALLER 0xCC MULMOD 0xD7 PUSH31 0x764736F6C6343000807003300000000000000000000000000000000000000 "
		},
		"gasEstimates": {
			"creation": {
				"codeDepositCost": "297200",
				"executionCost": "337",
				"totalCost": "297537"
			},
			"external": {
				"": "1909",
				"foo(string,uint256,uint256)": "infinite",
				"getseniordev()": "infinite"
			}
		},
		"methodIdentifiers": {
			"foo(string,uint256,uint256)": "ec9da493",
			"getseniordev()": "520091d9"
		}
	},
	"abi": [
		{
			"anonymous": false,
			"inputs": [
				{
					"indexed": false,
					"internalType": "string",
					"name": "message",
					"type": "string"
				}
			],
			"name": "FallbackTriggered",
			"type": "event"
		},
		{
			"anonymous": false,
			"inputs": [
				{
					"indexed": false,
					"internalType": "address",
					"name": "caller",
					"type": "address"
				},
				{
					"indexed": false,
					"internalType": "uint256",
					"name": "amount",
					"type": "uint256"
				},
				{
					"indexed": false,
					"internalType": "string",
					"name": "message",
					"type": "string"
				}
			],
			"name": "Received",
			"type": "event"
		},
		{
			"stateMutability": "payable",
			"type": "fallback"
		},
		{
			"inputs": [
				{
					"internalType": "string",
					"name": "_message",
					"type": "string"
				},
				{
					"internalType": "uint256",
					"name": "_x",
					"type": "uint256"
				},
				{
					"internalType": "uint256",
					"name": "_y",
					"type": "uint256"
				}
			],
			"name": "foo",
			"outputs": [
				{
					"internalType": "uint256",
					"name": "",
					"type": "uint256"
				}
			],
			"stateMutability": "payable",
			"type": "function"
		},
		{
			"inputs": [],
			"name": "getseniordev",
			"outputs": [
				{
					"internalType": "string",
					"name": "seniordev",
					"type": "string"
				}
			],
			"stateMutability": "nonpayable",
			"type": "function"
		}
	]
}