{
	".deps/piggySavings.sol": {
		"caller": {
			"abi": [
				{
					"anonymous": false,
					"inputs": [
						{
							"indexed": false,
							"internalType": "bool",
							"name": "success",
							"type": "bool"
						},
						{
							"indexed": false,
							"internalType": "bytes",
							"name": "data",
							"type": "bytes"
						}
					],
					"name": "Response",
					"type": "event"
				},
				{
					"inputs": [
						{
							"internalType": "address",
							"name": "_addr",
							"type": "address"
						}
					],
					"name": "testCallNonExistent",
					"outputs": [],
					"stateMutability": "nonpayable",
					"type": "function"
				},
				{
					"inputs": [
						{
							"internalType": "address payable",
							"name": "_addr",
							"type": "address"
						}
					],
					"name": "testcallfoo",
					"outputs": [],
					"stateMutability": "payable",
					"type": "function"
				}
			],
			"devdoc": {
				"kind": "dev",
				"methods": {},
				"version": 1
			},
			"evm": {
				"assembly": "    /* \".deps/piggySavings.sol\":619:1225  contract caller{\r... */\n  mstore(0x40, 0x80)\n  callvalue\n  dup1\n  iszero\n  tag_1\n  jumpi\n  0x00\n  dup1\n  revert\ntag_1:\n  pop\n  dataSize(sub_0)\n  dup1\n  dataOffset(sub_0)\n  0x00\n  codecopy\n  0x00\n  return\nstop\n\nsub_0: assembly {\n        /* \".deps/piggySavings.sol\":619:1225  contract caller{\r... */\n      mstore(0x40, 0x80)\n      jumpi(tag_1, lt(calldatasize, 0x04))\n      shr(0xe0, calldataload(0x00))\n      dup1\n      0x6d8c40\n      eq\n      tag_2\n      jumpi\n      dup1\n      0xb123c5b7\n      eq\n      tag_3\n      jumpi\n    tag_1:\n      0x00\n      dup1\n      revert\n        /* \".deps/piggySavings.sol\":987:1220  function testCallNonExistent(address _addr) public {\r... */\n    tag_2:\n      callvalue\n      dup1\n      iszero\n      tag_4\n      jumpi\n      0x00\n      dup1\n      revert\n    tag_4:\n      pop\n      tag_5\n      0x04\n      dup1\n      calldatasize\n      sub\n      dup2\n      add\n      swap1\n      tag_6\n      swap2\n      swap1\n      tag_7\n      jump\t// in\n    tag_6:\n      tag_8\n      jump\t// in\n    tag_5:\n      stop\n        /* \".deps/piggySavings.sol\":690:973  function testcallfoo(address payable _addr) public payable{\r... */\n    tag_3:\n      tag_9\n      0x04\n      dup1\n      calldatasize\n      sub\n      dup2\n      add\n      swap1\n      tag_10\n      swap2\n      swap1\n      tag_11\n      jump\t// in\n    tag_10:\n      tag_12\n      jump\t// in\n    tag_9:\n      stop\n        /* \".deps/piggySavings.sol\":987:1220  function testCallNonExistent(address _addr) public {\r... */\n    tag_8:\n        /* \".deps/piggySavings.sol\":1054:1066  bool success */\n      0x00\n        /* \".deps/piggySavings.sol\":1068:1085  bytes memory data */\n      dup1\n        /* \".deps/piggySavings.sol\":1089:1094  _addr */\n      dup3\n        /* \".deps/piggySavings.sol\":1089:1099  _addr.call */\n      0xffffffffffffffffffffffffffffffffffffffff\n      and\n        /* \".deps/piggySavings.sol\":1118:1159  abi.encodeWithSignature(\"getseniordev()\") */\n      add(0x24, mload(0x40))\n      mload(0x40)\n      0x20\n      dup2\n      dup4\n      sub\n      sub\n      dup2\n      mstore\n      swap1\n      0x40\n      mstore\n      and(not(0xffffffffffffffffffffffffffffffffffffffffffffffffffffffff), 0x520091d900000000000000000000000000000000000000000000000000000000)\n      0x20\n      dup3\n      add\n      dup1\n      mload\n      0xffffffffffffffffffffffffffffffffffffffffffffffffffffffff\n      dup4\n      dup2\n      dup4\n      and\n      or\n      dup4\n      mstore\n      pop\n      pop\n      pop\n      pop\n        /* \".deps/piggySavings.sol\":1089:1174  _addr.call(\r... */\n      mload(0x40)\n      tag_14\n      swap2\n      swap1\n      tag_15\n      jump\t// in\n    tag_14:\n      0x00\n      mload(0x40)\n      dup1\n      dup4\n      sub\n      dup2\n      0x00\n      dup7\n      gas\n      call\n      swap2\n      pop\n      pop\n      returndatasize\n      dup1\n      0x00\n      dup2\n      eq\n      tag_18\n      jumpi\n      mload(0x40)\n      swap2\n      pop\n      and(add(returndatasize, 0x3f), not(0x1f))\n      dup3\n      add\n      0x40\n      mstore\n      returndatasize\n      dup3\n      mstore\n      returndatasize\n      0x00\n      0x20\n      dup5\n      add\n      returndatacopy\n      jump(tag_17)\n    tag_18:\n      0x60\n      swap2\n      pop\n    tag_17:\n      pop\n        /* \".deps/piggySavings.sol\":1053:1174  (bool success, bytes memory data) = _addr.call(\r... */\n      swap2\n      pop\n      swap2\n      pop\n        /* \".deps/piggySavings.sol\":1190:1213  Response(success, data) */\n      0x13848c3e38f8886f3f5d2ad9dff80d8092c2bbb8efd5b887a99c2c6cfc09ac2a\n        /* \".deps/piggySavings.sol\":1199:1206  success */\n      dup3\n        /* \".deps/piggySavings.sol\":1208:1212  data */\n      dup3\n        /* \".deps/piggySavings.sol\":1190:1213  Response(success, data) */\n      mload(0x40)\n      tag_19\n      swap3\n      swap2\n      swap1\n      tag_20\n      jump\t// in\n    tag_19:\n      mload(0x40)\n      dup1\n      swap2\n      sub\n      swap1\n      log1\n        /* \".deps/piggySavings.sol\":1038:1220  {\r... */\n      pop\n      pop\n        /* \".deps/piggySavings.sol\":987:1220  function testCallNonExistent(address _addr) public {\r... */\n      pop\n      jump\t// out\n        /* \".deps/piggySavings.sol\":690:973  function testcallfoo(address payable _addr) public payable{\r... */\n    tag_12:\n        /* \".deps/piggySavings.sol\":760:772  bool success */\n      0x00\n        /* \".deps/piggySavings.sol\":774:791  bytes memory data */\n      dup1\n        /* \".deps/piggySavings.sol\":795:800  _addr */\n      dup3\n        /* \".deps/piggySavings.sol\":795:805  _addr.call */\n      0xffffffffffffffffffffffffffffffffffffffff\n      and\n        /* \".deps/piggySavings.sol\":813:822  msg.value */\n      callvalue\n        /* \".deps/piggySavings.sol\":905:908  500 */\n      0x01f4\n        /* \".deps/piggySavings.sol\":910:912  50 */\n      0x32\n        /* \".deps/piggySavings.sol\":838:913  abi.encodeWithSignature(\"foo(string,uint256,uint256)\", \"call foo\", 500, 50) */\n      add(0x24, mload(0x40))\n      tag_22\n      swap3\n      swap2\n      swap1\n      tag_23\n      jump\t// in\n    tag_22:\n      mload(0x40)\n      0x20\n      dup2\n      dup4\n      sub\n      sub\n      dup2\n      mstore\n      swap1\n      0x40\n      mstore\n      and(not(0xffffffffffffffffffffffffffffffffffffffffffffffffffffffff), 0xec9da49300000000000000000000000000000000000000000000000000000000)\n      0x20\n      dup3\n      add\n      dup1\n      mload\n      0xffffffffffffffffffffffffffffffffffffffffffffffffffffffff\n      dup4\n      dup2\n      dup4\n      and\n      or\n      dup4\n      mstore\n      pop\n      pop\n      pop\n      pop\n        /* \".deps/piggySavings.sol\":795:924  _addr.call{value: msg.value}(\r... */\n      mload(0x40)\n      tag_24\n      swap2\n      swap1\n      tag_15\n      jump\t// in\n    tag_24:\n      0x00\n      mload(0x40)\n      dup1\n      dup4\n      sub\n      dup2\n      dup6\n      dup8\n      gas\n      call\n      swap3\n      pop\n      pop\n      pop\n      returndatasize\n      dup1\n      0x00\n      dup2\n      eq\n      tag_27\n      jumpi\n      mload(0x40)\n      swap2\n      pop\n      and(add(returndatasize, 0x3f), not(0x1f))\n      dup3\n      add\n      0x40\n      mstore\n      returndatasize\n      dup3\n      mstore\n      returndatasize\n      0x00\n      0x20\n      dup5\n      add\n      returndatacopy\n      jump(tag_26)\n    tag_27:\n      0x60\n      swap2\n      pop\n    tag_26:\n      pop\n        /* \".deps/piggySavings.sol\":759:924  (bool success, bytes memory data) = _addr.call{value: msg.value}(\r... */\n      swap2\n      pop\n      swap2\n      pop\n        /* \".deps/piggySavings.sol\":942:965  Response(success, data) */\n      0x13848c3e38f8886f3f5d2ad9dff80d8092c2bbb8efd5b887a99c2c6cfc09ac2a\n        /* \".deps/piggySavings.sol\":951:958  success */\n      dup3\n        /* \".deps/piggySavings.sol\":960:964  data */\n      dup3\n        /* \".deps/piggySavings.sol\":942:965  Response(success, data) */\n      mload(0x40)\n      tag_28\n      swap3\n      swap2\n      swap1\n      tag_20\n      jump\t// in\n    tag_28:\n      mload(0x40)\n      dup1\n      swap2\n      sub\n      swap1\n      log1\n        /* \".deps/piggySavings.sol\":748:973  {\r... */\n      pop\n      pop\n        /* \".deps/piggySavings.sol\":690:973  function testcallfoo(address payable _addr) public payable{\r... */\n      pop\n      jump\t// out\n        /* \"#utility.yul\":7:146   */\n    tag_30:\n        /* \"#utility.yul\":53:58   */\n      0x00\n        /* \"#utility.yul\":91:97   */\n      dup2\n        /* \"#utility.yul\":78:98   */\n      calldataload\n        /* \"#utility.yul\":69:98   */\n      swap1\n      pop\n        /* \"#utility.yul\":107:140   */\n      tag_32\n        /* \"#utility.yul\":134:139   */\n      dup2\n        /* \"#utility.yul\":107:140   */\n      tag_33\n      jump\t// in\n    tag_32:\n        /* \"#utility.yul\":7:146   */\n      swap3\n      swap2\n      pop\n      pop\n      jump\t// out\n        /* \"#utility.yul\":152:307   */\n    tag_34:\n        /* \"#utility.yul\":206:211   */\n      0x00\n        /* \"#utility.yul\":244:250   */\n      dup2\n        /* \"#utility.yul\":231:251   */\n      calldataload\n        /* \"#utility.yul\":222:251   */\n      swap1\n      pop\n        /* \"#utility.yul\":260:301   */\n      tag_36\n        /* \"#utility.yul\":295:300   */\n      dup2\n        /* \"#utility.yul\":260:301   */\n      tag_37\n      jump\t// in\n    tag_36:\n        /* \"#utility.yul\":152:307   */\n      swap3\n      swap2\n      pop\n      pop\n      jump\t// out\n        /* \"#utility.yul\":313:642   */\n    tag_7:\n        /* \"#utility.yul\":372:378   */\n      0x00\n        /* \"#utility.yul\":421:423   */\n      0x20\n        /* \"#utility.yul\":409:418   */\n      dup3\n        /* \"#utility.yul\":400:407   */\n      dup5\n        /* \"#utility.yul\":396:419   */\n      sub\n        /* \"#utility.yul\":392:424   */\n      slt\n        /* \"#utility.yul\":389:508   */\n      iszero\n      tag_39\n      jumpi\n        /* \"#utility.yul\":427:506   */\n      tag_40\n      tag_41\n      jump\t// in\n    tag_40:\n        /* \"#utility.yul\":389:508   */\n    tag_39:\n        /* \"#utility.yul\":547:548   */\n      0x00\n        /* \"#utility.yul\":572:625   */\n      tag_42\n        /* \"#utility.yul\":617:624   */\n      dup5\n        /* \"#utility.yul\":608:614   */\n      dup3\n        /* \"#utility.yul\":597:606   */\n      dup6\n        /* \"#utility.yul\":593:615   */\n      add\n        /* \"#utility.yul\":572:625   */\n      tag_30\n      jump\t// in\n    tag_42:\n        /* \"#utility.yul\":562:625   */\n      swap2\n      pop\n        /* \"#utility.yul\":518:635   */\n      pop\n        /* \"#utility.yul\":313:642   */\n      swap3\n      swap2\n      pop\n      pop\n      jump\t// out\n        /* \"#utility.yul\":648:993   */\n    tag_11:\n        /* \"#utility.yul\":715:721   */\n      0x00\n        /* \"#utility.yul\":764:766   */\n      0x20\n        /* \"#utility.yul\":752:761   */\n      dup3\n        /* \"#utility.yul\":743:750   */\n      dup5\n        /* \"#utility.yul\":739:762   */\n      sub\n        /* \"#utility.yul\":735:767   */\n      slt\n        /* \"#utility.yul\":732:851   */\n      iszero\n      tag_44\n      jumpi\n        /* \"#utility.yul\":770:849   */\n      tag_45\n      tag_41\n      jump\t// in\n    tag_45:\n        /* \"#utility.yul\":732:851   */\n    tag_44:\n        /* \"#utility.yul\":890:891   */\n      0x00\n        /* \"#utility.yul\":915:976   */\n      tag_46\n        /* \"#utility.yul\":968:975   */\n      dup5\n        /* \"#utility.yul\":959:965   */\n      dup3\n        /* \"#utility.yul\":948:957   */\n      dup6\n        /* \"#utility.yul\":944:966   */\n      add\n        /* \"#utility.yul\":915:976   */\n      tag_34\n      jump\t// in\n    tag_46:\n        /* \"#utility.yul\":905:976   */\n      swap2\n      pop\n        /* \"#utility.yul\":861:986   */\n      pop\n        /* \"#utility.yul\":648:993   */\n      swap3\n      swap2\n      pop\n      pop\n      jump\t// out\n        /* \"#utility.yul\":999:1108   */\n    tag_47:\n        /* \"#utility.yul\":1080:1101   */\n      tag_49\n        /* \"#utility.yul\":1095:1100   */\n      dup2\n        /* \"#utility.yul\":1080:1101   */\n      tag_50\n      jump\t// in\n    tag_49:\n        /* \"#utility.yul\":1075:1078   */\n      dup3\n        /* \"#utility.yul\":1068:1102   */\n      mstore\n        /* \"#utility.yul\":999:1108   */\n      pop\n      pop\n      jump\t// out\n        /* \"#utility.yul\":1114:1474   */\n    tag_51:\n        /* \"#utility.yul\":1200:1203   */\n      0x00\n        /* \"#utility.yul\":1228:1266   */\n      tag_53\n        /* \"#utility.yul\":1260:1265   */\n      dup3\n        /* \"#utility.yul\":1228:1266   */\n      tag_54\n      jump\t// in\n    tag_53:\n        /* \"#utility.yul\":1282:1352   */\n      tag_55\n        /* \"#utility.yul\":1345:1351   */\n      dup2\n        /* \"#utility.yul\":1340:1343   */\n      dup6\n        /* \"#utility.yul\":1282:1352   */\n      tag_56\n      jump\t// in\n    tag_55:\n        /* \"#utility.yul\":1275:1352   */\n      swap4\n      pop\n        /* \"#utility.yul\":1361:1413   */\n      tag_57\n        /* \"#utility.yul\":1406:1412   */\n      dup2\n        /* \"#utility.yul\":1401:1404   */\n      dup6\n        /* \"#utility.yul\":1394:1398   */\n      0x20\n        /* \"#utility.yul\":1387:1392   */\n      dup7\n        /* \"#utility.yul\":1383:1399   */\n      add\n        /* \"#utility.yul\":1361:1413   */\n      tag_58\n      jump\t// in\n    tag_57:\n        /* \"#utility.yul\":1438:1467   */\n      tag_59\n        /* \"#utility.yul\":1460:1466   */\n      dup2\n        /* \"#utility.yul\":1438:1467   */\n      tag_60\n      jump\t// in\n    tag_59:\n        /* \"#utility.yul\":1433:1436   */\n      dup5\n        /* \"#utility.yul\":1429:1468   */\n      add\n        /* \"#utility.yul\":1422:1468   */\n      swap2\n      pop\n        /* \"#utility.yul\":1204:1474   */\n      pop\n        /* \"#utility.yul\":1114:1474   */\n      swap3\n      swap2\n      pop\n      pop\n      jump\t// out\n        /* \"#utility.yul\":1480:1853   */\n    tag_61:\n        /* \"#utility.yul\":1584:1587   */\n      0x00\n        /* \"#utility.yul\":1612:1650   */\n      tag_63\n        /* \"#utility.yul\":1644:1649   */\n      dup3\n        /* \"#utility.yul\":1612:1650   */\n      tag_54\n      jump\t// in\n    tag_63:\n        /* \"#utility.yul\":1666:1754   */\n      tag_64\n        /* \"#utility.yul\":1747:1753   */\n      dup2\n        /* \"#utility.yul\":1742:1745   */\n      dup6\n        /* \"#utility.yul\":1666:1754   */\n      tag_65\n      jump\t// in\n    tag_64:\n        /* \"#utility.yul\":1659:1754   */\n      swap4\n      pop\n        /* \"#utility.yul\":1763:1815   */\n      tag_66\n        /* \"#utility.yul\":1808:1814   */\n      dup2\n        /* \"#utility.yul\":1803:1806   */\n      dup6\n        /* \"#utility.yul\":1796:1800   */\n      0x20\n        /* \"#utility.yul\":1789:1794   */\n      dup7\n        /* \"#utility.yul\":1785:1801   */\n      add\n        /* \"#utility.yul\":1763:1815   */\n      tag_58\n      jump\t// in\n    tag_66:\n        /* \"#utility.yul\":1840:1846   */\n      dup1\n        /* \"#utility.yul\":1835:1838   */\n      dup5\n        /* \"#utility.yul\":1831:1847   */\n      add\n        /* \"#utility.yul\":1824:1847   */\n      swap2\n      pop\n        /* \"#utility.yul\":1588:1853   */\n      pop\n        /* \"#utility.yul\":1480:1853   */\n      swap3\n      swap2\n      pop\n      pop\n      jump\t// out\n        /* \"#utility.yul\":1859:2008   */\n    tag_67:\n        /* \"#utility.yul\":1955:2001   */\n      tag_69\n        /* \"#utility.yul\":1995:2000   */\n      dup2\n        /* \"#utility.yul\":1955:2001   */\n      tag_70\n      jump\t// in\n    tag_69:\n        /* \"#utility.yul\":1950:1953   */\n      dup3\n        /* \"#utility.yul\":1943:2002   */\n      mstore\n        /* \"#utility.yul\":1859:2008   */\n      pop\n      pop\n      jump\t// out\n        /* \"#utility.yul\":2014:2159   */\n    tag_71:\n        /* \"#utility.yul\":2108:2152   */\n      tag_73\n        /* \"#utility.yul\":2146:2151   */\n      dup2\n        /* \"#utility.yul\":2108:2152   */\n      tag_74\n      jump\t// in\n    tag_73:\n        /* \"#utility.yul\":2103:2106   */\n      dup3\n        /* \"#utility.yul\":2096:2153   */\n      mstore\n        /* \"#utility.yul\":2014:2159   */\n      pop\n      pop\n      jump\t// out\n        /* \"#utility.yul\":2165:2530   */\n    tag_75:\n        /* \"#utility.yul\":2307:2310   */\n      0x00\n        /* \"#utility.yul\":2328:2394   */\n      tag_77\n        /* \"#utility.yul\":2392:2393   */\n      0x08\n        /* \"#utility.yul\":2387:2390   */\n      dup4\n        /* \"#utility.yul\":2328:2394   */\n      tag_78\n      jump\t// in\n    tag_77:\n        /* \"#utility.yul\":2321:2394   */\n      swap2\n      pop\n        /* \"#utility.yul\":2403:2496   */\n      tag_79\n        /* \"#utility.yul\":2492:2495   */\n      dup3\n        /* \"#utility.yul\":2403:2496   */\n      tag_80\n      jump\t// in\n    tag_79:\n        /* \"#utility.yul\":2521:2523   */\n      0x20\n        /* \"#utility.yul\":2516:2519   */\n      dup3\n        /* \"#utility.yul\":2512:2524   */\n      add\n        /* \"#utility.yul\":2505:2524   */\n      swap1\n      pop\n        /* \"#utility.yul\":2165:2530   */\n      swap2\n      swap1\n      pop\n      jump\t// out\n        /* \"#utility.yul\":2536:2807   */\n    tag_15:\n        /* \"#utility.yul\":2666:2669   */\n      0x00\n        /* \"#utility.yul\":2688:2781   */\n      tag_82\n        /* \"#utility.yul\":2777:2780   */\n      dup3\n        /* \"#utility.yul\":2768:2774   */\n      dup5\n        /* \"#utility.yul\":2688:2781   */\n      tag_61\n      jump\t// in\n    tag_82:\n        /* \"#utility.yul\":2681:2781   */\n      swap2\n      pop\n        /* \"#utility.yul\":2798:2801   */\n      dup2\n        /* \"#utility.yul\":2791:2801   */\n      swap1\n      pop\n        /* \"#utility.yul\":2536:2807   */\n      swap3\n      swap2\n      pop\n      pop\n      jump\t// out\n        /* \"#utility.yul\":2813:3220   */\n    tag_20:\n        /* \"#utility.yul\":2946:2950   */\n      0x00\n        /* \"#utility.yul\":2984:2986   */\n      0x40\n        /* \"#utility.yul\":2973:2982   */\n      dup3\n        /* \"#utility.yul\":2969:2987   */\n      add\n        /* \"#utility.yul\":2961:2987   */\n      swap1\n      pop\n        /* \"#utility.yul\":2997:3062   */\n      tag_84\n        /* \"#utility.yul\":3059:3060   */\n      0x00\n        /* \"#utility.yul\":3048:3057   */\n      dup4\n        /* \"#utility.yul\":3044:3061   */\n      add\n        /* \"#utility.yul\":3035:3041   */\n      dup6\n        /* \"#utility.yul\":2997:3062   */\n      tag_47\n      jump\t// in\n    tag_84:\n        /* \"#utility.yul\":3109:3118   */\n      dup2\n        /* \"#utility.yul\":3103:3107   */\n      dup2\n        /* \"#utility.yul\":3099:3119   */\n      sub\n        /* \"#utility.yul\":3094:3096   */\n      0x20\n        /* \"#utility.yul\":3083:3092   */\n      dup4\n        /* \"#utility.yul\":3079:3097   */\n      add\n        /* \"#utility.yul\":3072:3120   */\n      mstore\n        /* \"#utility.yul\":3137:3213   */\n      tag_85\n        /* \"#utility.yul\":3208:3212   */\n      dup2\n        /* \"#utility.yul\":3199:3205   */\n      dup5\n        /* \"#utility.yul\":3137:3213   */\n      tag_51\n      jump\t// in\n    tag_85:\n        /* \"#utility.yul\":3129:3213   */\n      swap1\n      pop\n        /* \"#utility.yul\":2813:3220   */\n      swap4\n      swap3\n      pop\n      pop\n      pop\n      jump\t// out\n        /* \"#utility.yul\":3226:3897   */\n    tag_23:\n        /* \"#utility.yul\":3464:3468   */\n      0x00\n        /* \"#utility.yul\":3502:3504   */\n      0x60\n        /* \"#utility.yul\":3491:3500   */\n      dup3\n        /* \"#utility.yul\":3487:3505   */\n      add\n        /* \"#utility.yul\":3479:3505   */\n      swap1\n      pop\n        /* \"#utility.yul\":3551:3560   */\n      dup2\n        /* \"#utility.yul\":3545:3549   */\n      dup2\n        /* \"#utility.yul\":3541:3561   */\n      sub\n        /* \"#utility.yul\":3537:3538   */\n      0x00\n        /* \"#utility.yul\":3526:3535   */\n      dup4\n        /* \"#utility.yul\":3522:3539   */\n      add\n        /* \"#utility.yul\":3515:3562   */\n      mstore\n        /* \"#utility.yul\":3579:3710   */\n      tag_87\n        /* \"#utility.yul\":3705:3709   */\n      dup2\n        /* \"#utility.yul\":3579:3710   */\n      tag_75\n      jump\t// in\n    tag_87:\n        /* \"#utility.yul\":3571:3710   */\n      swap1\n      pop\n        /* \"#utility.yul\":3720:3801   */\n      tag_88\n        /* \"#utility.yul\":3797:3799   */\n      0x20\n        /* \"#utility.yul\":3786:3795   */\n      dup4\n        /* \"#utility.yul\":3782:3800   */\n      add\n        /* \"#utility.yul\":3773:3779   */\n      dup6\n        /* \"#utility.yul\":3720:3801   */\n      tag_67\n      jump\t// in\n    tag_88:\n        /* \"#utility.yul\":3811:3890   */\n      tag_89\n        /* \"#utility.yul\":3886:3888   */\n      0x40\n        /* \"#utility.yul\":3875:3884   */\n      dup4\n        /* \"#utility.yul\":3871:3889   */\n      add\n        /* \"#utility.yul\":3862:3868   */\n      dup5\n        /* \"#utility.yul\":3811:3890   */\n      tag_71\n      jump\t// in\n    tag_89:\n        /* \"#utility.yul\":3226:3897   */\n      swap4\n      swap3\n      pop\n      pop\n      pop\n      jump\t// out\n        /* \"#utility.yul\":3984:4082   */\n    tag_54:\n        /* \"#utility.yul\":4035:4041   */\n      0x00\n        /* \"#utility.yul\":4069:4074   */\n      dup2\n        /* \"#utility.yul\":4063:4075   */\n      mload\n        /* \"#utility.yul\":4053:4075   */\n      swap1\n      pop\n        /* \"#utility.yul\":3984:4082   */\n      swap2\n      swap1\n      pop\n      jump\t// out\n        /* \"#utility.yul\":4088:4256   */\n    tag_56:\n        /* \"#utility.yul\":4171:4182   */\n      0x00\n        /* \"#utility.yul\":4205:4211   */\n      dup3\n        /* \"#utility.yul\":4200:4203   */\n      dup3\n        /* \"#utility.yul\":4193:4212   */\n      mstore\n        /* \"#utility.yul\":4245:4249   */\n      0x20\n        /* \"#utility.yul\":4240:4243   */\n      dup3\n        /* \"#utility.yul\":4236:4250   */\n      add\n        /* \"#utility.yul\":4221:4250   */\n      swap1\n      pop\n        /* \"#utility.yul\":4088:4256   */\n      swap3\n      swap2\n      pop\n      pop\n      jump\t// out\n        /* \"#utility.yul\":4262:4409   */\n    tag_65:\n        /* \"#utility.yul\":4363:4374   */\n      0x00\n        /* \"#utility.yul\":4400:4403   */\n      dup2\n        /* \"#utility.yul\":4385:4403   */\n      swap1\n      pop\n        /* \"#utility.yul\":4262:4409   */\n      swap3\n      swap2\n      pop\n      pop\n      jump\t// out\n        /* \"#utility.yul\":4415:4584   */\n    tag_78:\n        /* \"#utility.yul\":4499:4510   */\n      0x00\n        /* \"#utility.yul\":4533:4539   */\n      dup3\n        /* \"#utility.yul\":4528:4531   */\n      dup3\n        /* \"#utility.yul\":4521:4540   */\n      mstore\n        /* \"#utility.yul\":4573:4577   */\n      0x20\n        /* \"#utility.yul\":4568:4571   */\n      dup3\n        /* \"#utility.yul\":4564:4578   */\n      add\n        /* \"#utility.yul\":4549:4578   */\n      swap1\n      pop\n        /* \"#utility.yul\":4415:4584   */\n      swap3\n      swap2\n      pop\n      pop\n      jump\t// out\n        /* \"#utility.yul\":4590:4686   */\n    tag_96:\n        /* \"#utility.yul\":4627:4634   */\n      0x00\n        /* \"#utility.yul\":4656:4680   */\n      tag_98\n        /* \"#utility.yul\":4674:4679   */\n      dup3\n        /* \"#utility.yul\":4656:4680   */\n      tag_99\n      jump\t// in\n    tag_98:\n        /* \"#utility.yul\":4645:4680   */\n      swap1\n      pop\n        /* \"#utility.yul\":4590:4686   */\n      swap2\n      swap1\n      pop\n      jump\t// out\n        /* \"#utility.yul\":4692:4796   */\n    tag_100:\n        /* \"#utility.yul\":4737:4744   */\n      0x00\n        /* \"#utility.yul\":4766:4790   */\n      tag_102\n        /* \"#utility.yul\":4784:4789   */\n      dup3\n        /* \"#utility.yul\":4766:4790   */\n      tag_99\n      jump\t// in\n    tag_102:\n        /* \"#utility.yul\":4755:4790   */\n      swap1\n      pop\n        /* \"#utility.yul\":4692:4796   */\n      swap2\n      swap1\n      pop\n      jump\t// out\n        /* \"#utility.yul\":4802:4892   */\n    tag_50:\n        /* \"#utility.yul\":4836:4843   */\n      0x00\n        /* \"#utility.yul\":4879:4884   */\n      dup2\n        /* \"#utility.yul\":4872:4885   */\n      iszero\n        /* \"#utility.yul\":4865:4886   */\n      iszero\n        /* \"#utility.yul\":4854:4886   */\n      swap1\n      pop\n        /* \"#utility.yul\":4802:4892   */\n      swap2\n      swap1\n      pop\n      jump\t// out\n        /* \"#utility.yul\":4898:4987   */\n    tag_104:\n        /* \"#utility.yul\":4934:4941   */\n      0x00\n        /* \"#utility.yul\":4974:4980   */\n      0xffff\n        /* \"#utility.yul\":4967:4972   */\n      dup3\n        /* \"#utility.yul\":4963:4981   */\n      and\n        /* \"#utility.yul\":4952:4981   */\n      swap1\n      pop\n        /* \"#utility.yul\":4898:4987   */\n      swap2\n      swap1\n      pop\n      jump\t// out\n        /* \"#utility.yul\":4993:5119   */\n    tag_99:\n        /* \"#utility.yul\":5030:5037   */\n      0x00\n        /* \"#utility.yul\":5070:5112   */\n      0xffffffffffffffffffffffffffffffffffffffff\n        /* \"#utility.yul\":5063:5068   */\n      dup3\n        /* \"#utility.yul\":5059:5113   */\n      and\n        /* \"#utility.yul\":5048:5113   */\n      swap1\n      pop\n        /* \"#utility.yul\":4993:5119   */\n      swap2\n      swap1\n      pop\n      jump\t// out\n        /* \"#utility.yul\":5125:5211   */\n    tag_107:\n        /* \"#utility.yul\":5160:5167   */\n      0x00\n        /* \"#utility.yul\":5200:5204   */\n      0xff\n        /* \"#utility.yul\":5193:5198   */\n      dup3\n        /* \"#utility.yul\":5189:5205   */\n      and\n        /* \"#utility.yul\":5178:5205   */\n      swap1\n      pop\n        /* \"#utility.yul\":5125:5211   */\n      swap2\n      swap1\n      pop\n      jump\t// out\n        /* \"#utility.yul\":5217:5338   */\n    tag_70:\n        /* \"#utility.yul\":5276:5285   */\n      0x00\n        /* \"#utility.yul\":5309:5332   */\n      tag_110\n        /* \"#utility.yul\":5326:5331   */\n      dup3\n        /* \"#utility.yul\":5309:5332   */\n      tag_104\n      jump\t// in\n    tag_110:\n        /* \"#utility.yul\":5296:5332   */\n      swap1\n      pop\n        /* \"#utility.yul\":5217:5338   */\n      swap2\n      swap1\n      pop\n      jump\t// out\n        /* \"#utility.yul\":5344:5462   */\n    tag_74:\n        /* \"#utility.yul\":5401:5410   */\n      0x00\n        /* \"#utility.yul\":5434:5456   */\n      tag_112\n        /* \"#utility.yul\":5450:5455   */\n      dup3\n        /* \"#utility.yul\":5434:5456   */\n      tag_107\n      jump\t// in\n    tag_112:\n        /* \"#utility.yul\":5421:5456   */\n      swap1\n      pop\n        /* \"#utility.yul\":5344:5462   */\n      swap2\n      swap1\n      pop\n      jump\t// out\n        /* \"#utility.yul\":5468:5775   */\n    tag_58:\n        /* \"#utility.yul\":5536:5537   */\n      0x00\n        /* \"#utility.yul\":5546:5659   */\n    tag_114:\n        /* \"#utility.yul\":5560:5566   */\n      dup4\n        /* \"#utility.yul\":5557:5558   */\n      dup2\n        /* \"#utility.yul\":5554:5567   */\n      lt\n        /* \"#utility.yul\":5546:5659   */\n      iszero\n      tag_116\n      jumpi\n        /* \"#utility.yul\":5645:5646   */\n      dup1\n        /* \"#utility.yul\":5640:5643   */\n      dup3\n        /* \"#utility.yul\":5636:5647   */\n      add\n        /* \"#utility.yul\":5630:5648   */\n      mload\n        /* \"#utility.yul\":5626:5627   */\n      dup2\n        /* \"#utility.yul\":5621:5624   */\n      dup5\n        /* \"#utility.yul\":5617:5628   */\n      add\n        /* \"#utility.yul\":5610:5649   */\n      mstore\n        /* \"#utility.yul\":5582:5584   */\n      0x20\n        /* \"#utility.yul\":5579:5580   */\n      dup2\n        /* \"#utility.yul\":5575:5585   */\n      add\n        /* \"#utility.yul\":5570:5585   */\n      swap1\n      pop\n        /* \"#utility.yul\":5546:5659   */\n      jump(tag_114)\n    tag_116:\n        /* \"#utility.yul\":5677:5683   */\n      dup4\n        /* \"#utility.yul\":5674:5675   */\n      dup2\n        /* \"#utility.yul\":5671:5684   */\n      gt\n        /* \"#utility.yul\":5668:5769   */\n      iszero\n      tag_117\n      jumpi\n        /* \"#utility.yul\":5757:5758   */\n      0x00\n        /* \"#utility.yul\":5748:5754   */\n      dup5\n        /* \"#utility.yul\":5743:5746   */\n      dup5\n        /* \"#utility.yul\":5739:5755   */\n      add\n        /* \"#utility.yul\":5732:5759   */\n      mstore\n        /* \"#utility.yul\":5668:5769   */\n    tag_117:\n        /* \"#utility.yul\":5517:5775   */\n      pop\n        /* \"#utility.yul\":5468:5775   */\n      pop\n      pop\n      pop\n      jump\t// out\n        /* \"#utility.yul\":5904:6021   */\n    tag_41:\n        /* \"#utility.yul\":6013:6014   */\n      0x00\n        /* \"#utility.yul\":6010:6011   */\n      dup1\n        /* \"#utility.yul\":6003:6015   */\n      revert\n        /* \"#utility.yul\":6027:6129   */\n    tag_60:\n        /* \"#utility.yul\":6068:6074   */\n      0x00\n        /* \"#utility.yul\":6119:6121   */\n      0x1f\n        /* \"#utility.yul\":6115:6122   */\n      not\n        /* \"#utility.yul\":6110:6112   */\n      0x1f\n        /* \"#utility.yul\":6103:6108   */\n      dup4\n        /* \"#utility.yul\":6099:6113   */\n      add\n        /* \"#utility.yul\":6095:6123   */\n      and\n        /* \"#utility.yul\":6085:6123   */\n      swap1\n      pop\n        /* \"#utility.yul\":6027:6129   */\n      swap2\n      swap1\n      pop\n      jump\t// out\n        /* \"#utility.yul\":6135:6293   */\n    tag_80:\n        /* \"#utility.yul\":6275:6285   */\n      0x63616c6c20666f6f000000000000000000000000000000000000000000000000\n        /* \"#utility.yul\":6271:6272   */\n      0x00\n        /* \"#utility.yul\":6263:6269   */\n      dup3\n        /* \"#utility.yul\":6259:6273   */\n      add\n        /* \"#utility.yul\":6252:6286   */\n      mstore\n        /* \"#utility.yul\":6135:6293   */\n      pop\n      jump\t// out\n        /* \"#utility.yul\":6299:6421   */\n    tag_33:\n        /* \"#utility.yul\":6372:6396   */\n      tag_124\n        /* \"#utility.yul\":6390:6395   */\n      dup2\n        /* \"#utility.yul\":6372:6396   */\n      tag_96\n      jump\t// in\n    tag_124:\n        /* \"#utility.yul\":6365:6370   */\n      dup2\n        /* \"#utility.yul\":6362:6397   */\n      eq\n        /* \"#utility.yul\":6352:6415   */\n      tag_125\n      jumpi\n        /* \"#utility.yul\":6411:6412   */\n      0x00\n        /* \"#utility.yul\":6408:6409   */\n      dup1\n        /* \"#utility.yul\":6401:6413   */\n      revert\n        /* \"#utility.yul\":6352:6415   */\n    tag_125:\n        /* \"#utility.yul\":6299:6421   */\n      pop\n      jump\t// out\n        /* \"#utility.yul\":6427:6565   */\n    tag_37:\n        /* \"#utility.yul\":6508:6540   */\n      tag_127\n        /* \"#utility.yul\":6534:6539   */\n      dup2\n        /* \"#utility.yul\":6508:6540   */\n      tag_100\n      jump\t// in\n    tag_127:\n        /* \"#utility.yul\":6501:6506   */\n      dup2\n        /* \"#utility.yul\":6498:6541   */\n      eq\n        /* \"#utility.yul\":6488:6559   */\n      tag_128\n      jumpi\n        /* \"#utility.yul\":6555:6556   */\n      0x00\n        /* \"#utility.yul\":6552:6553   */\n      dup1\n        /* \"#utility.yul\":6545:6557   */\n      revert\n        /* \"#utility.yul\":6488:6559   */\n    tag_128:\n        /* \"#utility.yul\":6427:6565   */\n      pop\n      jump\t// out\n\n    auxdata: 0xa2646970667358221220d260a9a8fae9b8e22767b71bc5dc9ad94e77889e0f940a03508da2b57c17816c64736f6c63430008070033\n}\n",
				"bytecode": {
					"linkReferences": {},
					"object": "608060405234801561001057600080fd5b5061063f806100206000396000f3fe6080604052600436106100285760003560e01c80626d8c401461002d578063b123c5b714610056575b600080fd5b34801561003957600080fd5b50610054600480360381019061004f919061030b565b610072565b005b610070600480360381019061006b9190610338565b6101a1565b005b6000808273ffffffffffffffffffffffffffffffffffffffff166040516024016040516020818303038152906040527f520091d9000000000000000000000000000000000000000000000000000000007bffffffffffffffffffffffffffffffffffffffffffffffffffffffff19166020820180517bffffffffffffffffffffffffffffffffffffffffffffffffffffffff838183161783525050505060405161011c919061041f565b6000604051808303816000865af19150503d8060008114610159576040519150601f19603f3d011682016040523d82523d6000602084013e61015e565b606091505b50915091507f13848c3e38f8886f3f5d2ad9dff80d8092c2bbb8efd5b887a99c2c6cfc09ac2a8282604051610194929190610436565b60405180910390a1505050565b6000808273ffffffffffffffffffffffffffffffffffffffff16346101f460326040516024016101d2929190610466565b6040516020818303038152906040527fec9da493000000000000000000000000000000000000000000000000000000007bffffffffffffffffffffffffffffffffffffffffffffffffffffffff19166020820180517bffffffffffffffffffffffffffffffffffffffffffffffffffffffff838183161783525050505060405161025c919061041f565b60006040518083038185875af1925050503d8060008114610299576040519150601f19603f3d011682016040523d82523d6000602084013e61029e565b606091505b50915091507f13848c3e38f8886f3f5d2ad9dff80d8092c2bbb8efd5b887a99c2c6cfc09ac2a82826040516102d4929190610436565b60405180910390a1505050565b6000813590506102f0816105db565b92915050565b600081359050610305816105f2565b92915050565b6000602082840312156103215761032061059c565b5b600061032f848285016102e1565b91505092915050565b60006020828403121561034e5761034d61059c565b5b600061035c848285016102f6565b91505092915050565b61036e816104fe565b82525050565b600061037f826104a2565b61038981856104ad565b9350610399818560208601610569565b6103a2816105a1565b840191505092915050565b60006103b8826104a2565b6103c281856104be565b93506103d2818560208601610569565b80840191505092915050565b6103e781610545565b82525050565b6103f681610557565b82525050565b60006104096008836104c9565b9150610414826105b2565b602082019050919050565b600061042b82846103ad565b915081905092915050565b600060408201905061044b6000830185610365565b818103602083015261045d8184610374565b90509392505050565b6000606082019050818103600083015261047f816103fc565b905061048e60208301856103de565b61049b60408301846103ed565b9392505050565b600081519050919050565b600082825260208201905092915050565b600081905092915050565b600082825260208201905092915050565b60006104e582610518565b9050919050565b60006104f782610518565b9050919050565b60008115159050919050565b600061ffff82169050919050565b600073ffffffffffffffffffffffffffffffffffffffff82169050919050565b600060ff82169050919050565b60006105508261050a565b9050919050565b600061056282610538565b9050919050565b60005b8381101561058757808201518184015260208101905061056c565b83811115610596576000848401525b50505050565b600080fd5b6000601f19601f8301169050919050565b7f63616c6c20666f6f000000000000000000000000000000000000000000000000600082015250565b6105e4816104da565b81146105ef57600080fd5b50565b6105fb816104ec565b811461060657600080fd5b5056fea2646970667358221220d260a9a8fae9b8e22767b71bc5dc9ad94e77889e0f940a03508da2b57c17816c64736f6c63430008070033",
					"opcodes": "PUSH1 0x80 PUSH1 0x40 MSTORE CALLVALUE DUP1 ISZERO PUSH2 0x10 JUMPI PUSH1 0x0 DUP1 REVERT JUMPDEST POP PUSH2 0x63F DUP1 PUSH2 0x20 PUSH1 0x0 CODECOPY PUSH1 0x0 RETURN INVALID PUSH1 0x80 PUSH1 0x40 MSTORE PUSH1 0x4 CALLDATASIZE LT PUSH2 0x28 JUMPI PUSH1 0x0 CALLDATALOAD PUSH1 0xE0 SHR DUP1 PUSH3 0x6D8C40 EQ PUSH2 0x2D JUMPI DUP1 PUSH4 0xB123C5B7 EQ PUSH2 0x56 JUMPI JUMPDEST PUSH1 0x0 DUP1 REVERT JUMPDEST CALLVALUE DUP1 ISZERO PUSH2 0x39 JUMPI PUSH1 0x0 DUP1 REVERT JUMPDEST POP PUSH2 0x54 PUSH1 0x4 DUP1 CALLDATASIZE SUB DUP2 ADD SWAP1 PUSH2 0x4F SWAP2 SWAP1 PUSH2 0x30B JUMP JUMPDEST PUSH2 0x72 JUMP JUMPDEST STOP JUMPDEST PUSH2 0x70 PUSH1 0x4 DUP1 CALLDATASIZE SUB DUP2 ADD SWAP1 PUSH2 0x6B SWAP2 SWAP1 PUSH2 0x338 JUMP JUMPDEST PUSH2 0x1A1 JUMP JUMPDEST STOP JUMPDEST PUSH1 0x0 DUP1 DUP3 PUSH20 0xFFFFFFFFFFFFFFFFFFFFFFFFFFFFFFFFFFFFFFFF AND PUSH1 0x40 MLOAD PUSH1 0x24 ADD PUSH1 0x40 MLOAD PUSH1 0x20 DUP2 DUP4 SUB SUB DUP2 MSTORE SWAP1 PUSH1 0x40 MSTORE PUSH32 0x520091D900000000000000000000000000000000000000000000000000000000 PUSH28 0xFFFFFFFFFFFFFFFFFFFFFFFFFFFFFFFFFFFFFFFFFFFFFFFFFFFFFFFF NOT AND PUSH1 0x20 DUP3 ADD DUP1 MLOAD PUSH28 0xFFFFFFFFFFFFFFFFFFFFFFFFFFFFFFFFFFFFFFFFFFFFFFFFFFFFFFFF DUP4 DUP2 DUP4 AND OR DUP4 MSTORE POP POP POP POP PUSH1 0x40 MLOAD PUSH2 0x11C SWAP2 SWAP1 PUSH2 0x41F JUMP JUMPDEST PUSH1 0x0 PUSH1 0x40 MLOAD DUP1 DUP4 SUB DUP2 PUSH1 0x0 DUP7 GAS CALL SWAP2 POP POP RETURNDATASIZE DUP1 PUSH1 0x0 DUP2 EQ PUSH2 0x159 JUMPI PUSH1 0x40 MLOAD SWAP2 POP PUSH1 0x1F NOT PUSH1 0x3F RETURNDATASIZE ADD AND DUP3 ADD PUSH1 0x40 MSTORE RETURNDATASIZE DUP3 MSTORE RETURNDATASIZE PUSH1 0x0 PUSH1 0x20 DUP5 ADD RETURNDATACOPY PUSH2 0x15E JUMP JUMPDEST PUSH1 0x60 SWAP2 POP JUMPDEST POP SWAP2 POP SWAP2 POP PUSH32 0x13848C3E38F8886F3F5D2AD9DFF80D8092C2BBB8EFD5B887A99C2C6CFC09AC2A DUP3 DUP3 PUSH1 0x40 MLOAD PUSH2 0x194 SWAP3 SWAP2 SWAP1 PUSH2 0x436 JUMP JUMPDEST PUSH1 0x40 MLOAD DUP1 SWAP2 SUB SWAP1 LOG1 POP POP POP JUMP JUMPDEST PUSH1 0x0 DUP1 DUP3 PUSH20 0xFFFFFFFFFFFFFFFFFFFFFFFFFFFFFFFFFFFFFFFF AND CALLVALUE PUSH2 0x1F4 PUSH1 0x32 PUSH1 0x40 MLOAD PUSH1 0x24 ADD PUSH2 0x1D2 SWAP3 SWAP2 SWAP1 PUSH2 0x466 JUMP JUMPDEST PUSH1 0x40 MLOAD PUSH1 0x20 DUP2 DUP4 SUB SUB DUP2 MSTORE SWAP1 PUSH1 0x40 MSTORE PUSH32 0xEC9DA49300000000000000000000000000000000000000000000000000000000 PUSH28 0xFFFFFFFFFFFFFFFFFFFFFFFFFFFFFFFFFFFFFFFFFFFFFFFFFFFFFFFF NOT AND PUSH1 0x20 DUP3 ADD DUP1 MLOAD PUSH28 0xFFFFFFFFFFFFFFFFFFFFFFFFFFFFFFFFFFFFFFFFFFFFFFFFFFFFFFFF DUP4 DUP2 DUP4 AND OR DUP4 MSTORE POP POP POP POP PUSH1 0x40 MLOAD PUSH2 0x25C SWAP2 SWAP1 PUSH2 0x41F JUMP JUMPDEST PUSH1 0x0 PUSH1 0x40 MLOAD DUP1 DUP4 SUB DUP2 DUP6 DUP8 GAS CALL SWAP3 POP POP POP RETURNDATASIZE DUP1 PUSH1 0x0 DUP2 EQ PUSH2 0x299 JUMPI PUSH1 0x40 MLOAD SWAP2 POP PUSH1 0x1F NOT PUSH1 0x3F RETURNDATASIZE ADD AND DUP3 ADD PUSH1 0x40 MSTORE RETURNDATASIZE DUP3 MSTORE RETURNDATASIZE PUSH1 0x0 PUSH1 0x20 DUP5 ADD RETURNDATACOPY PUSH2 0x29E JUMP JUMPDEST PUSH1 0x60 SWAP2 POP JUMPDEST POP SWAP2 POP SWAP2 POP PUSH32 0x13848C3E38F8886F3F5D2AD9DFF80D8092C2BBB8EFD5B887A99C2C6CFC09AC2A DUP3 DUP3 PUSH1 0x40 MLOAD PUSH2 0x2D4 SWAP3 SWAP2 SWAP1 PUSH2 0x436 JUMP JUMPDEST PUSH1 0x40 MLOAD DUP1 SWAP2 SUB SWAP1 LOG1 POP POP POP JUMP JUMPDEST PUSH1 0x0 DUP2 CALLDATALOAD SWAP1 POP PUSH2 0x2F0 DUP2 PUSH2 0x5DB JUMP JUMPDEST SWAP3 SWAP2 POP POP JUMP JUMPDEST PUSH1 0x0 DUP2 CALLDATALOAD SWAP1 POP PUSH2 0x305 DUP2 PUSH2 0x5F2 JUMP JUMPDEST SWAP3 SWAP2 POP POP JUMP JUMPDEST PUSH1 0x0 PUSH1 0x20 DUP3 DUP5 SUB SLT ISZERO PUSH2 0x321 JUMPI PUSH2 0x320 PUSH2 0x59C JUMP JUMPDEST JUMPDEST PUSH1 0x0 PUSH2 0x32F DUP5 DUP3 DUP6 ADD PUSH2 0x2E1 JUMP JUMPDEST SWAP2 POP POP SWAP3 SWAP2 POP POP JUMP JUMPDEST PUSH1 0x0 PUSH1 0x20 DUP3 DUP5 SUB SLT ISZERO PUSH2 0x34E JUMPI PUSH2 0x34D PUSH2 0x59C JUMP JUMPDEST JUMPDEST PUSH1 0x0 PUSH2 0x35C DUP5 DUP3 DUP6 ADD PUSH2 0x2F6 JUMP JUMPDEST SWAP2 POP POP SWAP3 SWAP2 POP POP JUMP JUMPDEST PUSH2 0x36E DUP2 PUSH2 0x4FE JUMP JUMPDEST DUP3 MSTORE POP POP JUMP JUMPDEST PUSH1 0x0 PUSH2 0x37F DUP3 PUSH2 0x4A2 JUMP JUMPDEST PUSH2 0x389 DUP2 DUP6 PUSH2 0x4AD JUMP JUMPDEST SWAP4 POP PUSH2 0x399 DUP2 DUP6 PUSH1 0x20 DUP7 ADD PUSH2 0x569 JUMP JUMPDEST PUSH2 0x3A2 DUP2 PUSH2 0x5A1 JUMP JUMPDEST DUP5 ADD SWAP2 POP POP SWAP3 SWAP2 POP POP JUMP JUMPDEST PUSH1 0x0 PUSH2 0x3B8 DUP3 PUSH2 0x4A2 JUMP JUMPDEST PUSH2 0x3C2 DUP2 DUP6 PUSH2 0x4BE JUMP JUMPDEST SWAP4 POP PUSH2 0x3D2 DUP2 DUP6 PUSH1 0x20 DUP7 ADD PUSH2 0x569 JUMP JUMPDEST DUP1 DUP5 ADD SWAP2 POP POP SWAP3 SWAP2 POP POP JUMP JUMPDEST PUSH2 0x3E7 DUP2 PUSH2 0x545 JUMP JUMPDEST DUP3 MSTORE POP POP JUMP JUMPDEST PUSH2 0x3F6 DUP2 PUSH2 0x557 JUMP JUMPDEST DUP3 MSTORE POP POP JUMP JUMPDEST PUSH1 0x0 PUSH2 0x409 PUSH1 0x8 DUP4 PUSH2 0x4C9 JUMP JUMPDEST SWAP2 POP PUSH2 0x414 DUP3 PUSH2 0x5B2 JUMP JUMPDEST PUSH1 0x20 DUP3 ADD SWAP1 POP SWAP2 SWAP1 POP JUMP JUMPDEST PUSH1 0x0 PUSH2 0x42B DUP3 DUP5 PUSH2 0x3AD JUMP JUMPDEST SWAP2 POP DUP2 SWAP1 POP SWAP3 SWAP2 POP POP JUMP JUMPDEST PUSH1 0x0 PUSH1 0x40 DUP3 ADD SWAP1 POP PUSH2 0x44B PUSH1 0x0 DUP4 ADD DUP6 PUSH2 0x365 JUMP JUMPDEST DUP2 DUP2 SUB PUSH1 0x20 DUP4 ADD MSTORE PUSH2 0x45D DUP2 DUP5 PUSH2 0x374 JUMP JUMPDEST SWAP1 POP SWAP4 SWAP3 POP POP POP JUMP JUMPDEST PUSH1 0x0 PUSH1 0x60 DUP3 ADD SWAP1 POP DUP2 DUP2 SUB PUSH1 0x0 DUP4 ADD MSTORE PUSH2 0x47F DUP2 PUSH2 0x3FC JUMP JUMPDEST SWAP1 POP PUSH2 0x48E PUSH1 0x20 DUP4 ADD DUP6 PUSH2 0x3DE JUMP JUMPDEST PUSH2 0x49B PUSH1 0x40 DUP4 ADD DUP5 PUSH2 0x3ED JUMP JUMPDEST SWAP4 SWAP3 POP POP POP JUMP JUMPDEST PUSH1 0x0 DUP2 MLOAD SWAP1 POP SWAP2 SWAP1 POP JUMP JUMPDEST PUSH1 0x0 DUP3 DUP3 MSTORE PUSH1 0x20 DUP3 ADD SWAP1 POP SWAP3 SWAP2 POP POP JUMP JUMPDEST PUSH1 0x0 DUP2 SWAP1 POP SWAP3 SWAP2 POP POP JUMP JUMPDEST PUSH1 0x0 DUP3 DUP3 MSTORE PUSH1 0x20 DUP3 ADD SWAP1 POP SWAP3 SWAP2 POP POP JUMP JUMPDEST PUSH1 0x0 PUSH2 0x4E5 DUP3 PUSH2 0x518 JUMP JUMPDEST SWAP1 POP SWAP2 SWAP1 POP JUMP JUMPDEST PUSH1 0x0 PUSH2 0x4F7 DUP3 PUSH2 0x518 JUMP JUMPDEST SWAP1 POP SWAP2 SWAP1 POP JUMP JUMPDEST PUSH1 0x0 DUP2 ISZERO ISZERO SWAP1 POP SWAP2 SWAP1 POP JUMP JUMPDEST PUSH1 0x0 PUSH2 0xFFFF DUP3 AND SWAP1 POP SWAP2 SWAP1 POP JUMP JUMPDEST PUSH1 0x0 PUSH20 0xFFFFFFFFFFFFFFFFFFFFFFFFFFFFFFFFFFFFFFFF DUP3 AND SWAP1 POP SWAP2 SWAP1 POP JUMP JUMPDEST PUSH1 0x0 PUSH1 0xFF DUP3 AND SWAP1 POP SWAP2 SWAP1 POP JUMP JUMPDEST PUSH1 0x0 PUSH2 0x550 DUP3 PUSH2 0x50A JUMP JUMPDEST SWAP1 POP SWAP2 SWAP1 POP JUMP JUMPDEST PUSH1 0x0 PUSH2 0x562 DUP3 PUSH2 0x538 JUMP JUMPDEST SWAP1 POP SWAP2 SWAP1 POP JUMP JUMPDEST PUSH1 0x0 JUMPDEST DUP4 DUP2 LT ISZERO PUSH2 0x587 JUMPI DUP1 DUP3 ADD MLOAD DUP2 DUP5 ADD MSTORE PUSH1 0x20 DUP2 ADD SWAP1 POP PUSH2 0x56C JUMP JUMPDEST DUP4 DUP2 GT ISZERO PUSH2 0x596 JUMPI PUSH1 0x0 DUP5 DUP5 ADD MSTORE JUMPDEST POP POP POP POP JUMP JUMPDEST PUSH1 0x0 DUP1 REVERT JUMPDEST PUSH1 0x0 PUSH1 0x1F NOT PUSH1 0x1F DUP4 ADD AND SWAP1 POP SWAP2 SWAP1 POP JUMP JUMPDEST PUSH32 0x63616C6C20666F6F000000000000000000000000000000000000000000000000 PUSH1 0x0 DUP3 ADD MSTORE POP JUMP JUMPDEST PUSH2 0x5E4 DUP2 PUSH2 0x4DA JUMP JUMPDEST DUP2 EQ PUSH2 0x5EF JUMPI PUSH1 0x0 DUP1 REVERT JUMPDEST POP JUMP JUMPDEST PUSH2 0x5FB DUP2 PUSH2 0x4EC JUMP JUMPDEST DUP2 EQ PUSH2 0x606 JUMPI PUSH1 0x0 DUP1 REVERT JUMPDEST POP JUMP INVALID LOG2 PUSH5 0x6970667358 0x22 SLT KECCAK256 0xD2 PUSH1 0xA9 0xA8 STATICCALL 0xE9 0xB8 0xE2 0x27 PUSH8 0xB71BC5DC9AD94E77 DUP9 SWAP15 0xF SWAP5 EXP SUB POP DUP14 LOG2 0xB5 PUSH29 0x17816C64736F6C63430008070033000000000000000000000000000000 "
				},
				"gasEstimates": {
					"creation": {
						"codeDepositCost": "319800",
						"executionCost": "355",
						"totalCost": "320155"
					},
					"external": {
						"testCallNonExistent(address)": "infinite",
						"testcallfoo(address)": "infinite"
					}
				},
				"methodIdentifiers": {
					"testCallNonExistent(address)": "006d8c40",
					"testcallfoo(address)": "b123c5b7"
				}
			},
			"storageLayout": {
				"storage": [],
				"types": null
			},
			"userdoc": {
				"kind": "user",
				"methods": {},
				"version": 1
			}
		}
	}
}